:100114002243FE026390027EA87F61C007C00612DC
:100124000114120114120114D006D0071EBEFF01DF
:100134001FEE4F70E622AF83E58290F000F0EFA34C
:10014400F090F000E0FEA3E0FF90F1B6EEF0EFA334
:10015400F0900FA0120CF7AE82AF838E048F057E51
:10016400007F008C008D018E028F031CBCFF091DD3
:10017400BDFF051EBEFF011FE8494A4B6003008016
:10018400E222AF83E58290F002F0EFA3F075E40081
:1001940075E20075E40C90F002E0FEA3E0FF90F13C
:1001A400B6EEF0EFA3F09000BB120CF7AE82AF8373
:1001B40043E402ACE27D00C3EC9EED9F40F575E4A0
:1001C4000022AFF0AE83E58290F006F0EEA3F0EFEC
:1001D400A3F090F006E0FDA3E0FEA3E0FF90F0049E
:1001E400E0FBA3E0FC79007A00C005C006C00789E3
:1001F400008A07C3E89BEF9CD007D006D005502B9C
:10020400C003C004E929F8EA33FCE82DF8EC3EFC0D
:100214008F0388828C838BF0E4120CDCA3120CDC39
:1002240009B900010AD004D00380BE22C021C0E075
:10023400C0F0C082C083C007C006C005C004C003AC
:10024400C002C001C000C0D075D00090F031744429
:10025400F090F032744DF090F0337441F090F0343B
:100264007420F090F0357449F090F0367453F090A7
:10027400F03714F090F038740AF090F039E4F0900C
:10028400F03A7444F090F03B744DF090F03C7441BB
:10029400F090F03D7420F090F03E7449F090F03FFF
:1002A4007446F090F040740AF090F041E4F0E5D127
:1002B400FF30E00953D1FED201C28B8037E5D13043
:1002C400E10F53D1FDC289D20075820112048780E7
:1002D40023E5D130E20D53D1FBC2897582021204A9
:1002E400878011E5D1FF30E30B53D1F7C2E9758262
:1002F40003120487C2C0D0D0D000D001D002D003F2
:10030400D004D005D006D007D083D082D0F0D0E07E
:10031400D02102008C7F00EF75F008A42409FD743D
:10032400F035F0FE7C0090F1AD7437F0740DA3F05D
:100334007480A3F090F1B0C4F0E4A3F08D828E83B6
:100344008CF0C007120C66D0070FBF050040C875BB
:10035400D4097E097FF08FD575D2117E117FF08F7D
:10036400D37EC17FDF8F0690F009EEF07FC190F05D
:100374000AEFF07E197FF18F0690F00BEEF07F19F3
:1003840090F00CEFF090F00D7420F090F00E23F04C
:1003940090F00F744EF090F010741AF07ED97FDF55
:1003A4008F0690F011EEF07FD990F012EFF07E609E
:1003B4007FF08F0690F013EEF07F6090F014EFF072
:1003C40090F0157420F090F01623F090F017745309
:1003D400F090F018741AF07EA07FF08F0690F01958
:1003E400EEF07FA090F01AEFF07ED97FDF8F0690B9
:1003F400F01BEEF07FD990F01CEFF090F01D74200C
:10040400F090F01E23F090F01F7453F090F02074DD
:100414004AF07F5990F022EFF07E597FF18F0690D9
:10042400F021EEF07EC17FDF8F0690F023EEF07FA7
:10043400C190F024EFF090F0257420F090F0262382
:10044400F090F027740FF090F028744AF043D60B24
:100454000000000000000000000000000000000098
:100464000000000000000000000000000000000088
:100474000000000000000000000000000043B8017C
:10048400C2C022E58290F042F0E0FF8FF005F074E4
:1004940001800225E0D5F0FB4480F5D60000000081
:1004A4000022E58290F043F0E0F5F005F07401805D
:1004B4000225E0D5F0FBF5D722E58290F044F0E088
:1004C400F5F005F07401800225E0D5F0FBFF42D67B
:1004D400000000000022E58290F045F0E0F5F00510
:0E04E400F07401800225E0D5F0FBF452D62220
:080D37000000000000000000B4
:1004F200AFF0AE83E58290F046F0EEA3F0EFA3F00A
:1005020090F0497468F090F04A7461F090F04B7486
:100512006EF090F04C7464F090F04D746CF090F0CA
:100522004E7465F090F04F7472F090F050740AF0CF
:1005320090F051E4F090F046E0FDA3E0FEA3E0FF6E
:1005420074022DFAE43EFB8F048A828B838CF012B4
:100552000D17FC74012DF9E43EFA8F0389828A8318
:100562008BF0120D17F9743F2DFDE43EFE8D828E45
:10057200838FF0120D17FFB97E05BF7F0280012223
:10058200BC0102800ABC1002800FBC1135801E75AE
:10059200820312048775C1012290F0527410F09008
:1005A200F199C4F090F05275F000020A6F90F05386
:1005B2007411F090F1997401F090F05375F000020B
:1005C2000A6F22AFF0AE83E58290F054F0EEA3F012
:1005D200EFA3F090F0577445F090F0587472F090D9
:1005E200F059F090F05A746FF090F05B7472F090E2
:1005F200F05C740AF090F05DE4F090F054E0FDA33A
:10060200E0FEA3E0FF74022DFAE43EFB8F048A822F
:100612008B838CF0120D17FC74012DF9E43EFA8FD6
:100622000389828A838BF0120D17F9743F2DFDE442
:100632003EFE8D828E838FF0120D17FFB97E05BFAD
:100642007F02800F90F1997406F090F05775F000D8
:10065200020A6FBC0102800ABC10028011BC115454
:10066200802075820312048775C101C2012290F0B5
:100672005E7410F090F199C4F090F05E75F0000293
:100682000A6F90F05F7411F090F1997401F090F09C
:100692005F75F000120A6F7F0090F1097404F0E4B4
:1006A200A3F090F0A0F5F0C007120906D0070FBF23
:1006B2000A0040E522C021C0E0C0F0C082C083C071
:1006C20007C006C005C004C003C002C001C000C00C
:1006D200D075D00090F0E4744FF090F0E57476F0AD
:1006E20090F0E67465F090F0E77472F090F0E874C0
:1006F20066F090F0E9746CF090F0EA746FF090F0AC
:10070200EB7477F090F0EC740AF090F0EDE4F09076
:10071200F0EE7454F090F0EF7458F090F0F0742012
:10072200F090F0F17455F090F0F2746EF090F0F3F6
:100732007464F090F0F404F090F0F57472F090F0BC
:10074200F67466F090F0F7746CF090F0F8746FF055
:1007520090F0F97477F090F0FA740AF090F0FBE4FC
:10076200F090F0FC7452F090F0FD7458F090F0FEAE
:100772007420F090F0FF744FF090F1007476F090D6
:10078200F1017465F090F1027472F090F1037466F5
:10079200F090F104746CF090F105746FF090F10632
:1007A2007477F090F107740AF090F108E4F075E1C3
:1007B2000490F1997409F090F0E475F000120A6F58
:1007C200E5E930E71190F199740EF090F0EE75F0D2
:1007D20000120A6F8015E5E9FF30E60F90F1997477
:1007E2000DF090F0FC75F000120A6FD0D0D000D05E
:1007F20001D002D003D004D005D006D007D083D0D8
:1008020082D0F0D0E0D02102008C90F0E0E4F090B1
:10081200F0E1F090DF2F742EF090DF30E4F090DF03
:1008220031F090DF0074D3F090DF017491F090DF2B
:100832000274FFF090DF03E4F090DF0404F090DF35
:1008420005E4F090DF06F090DF07740AF090DF080D
:10085200E4F090DF097465F090DF0A7460F090DFD5
:100862000BE4F090DF0C7476F090DF0D74A3F0903F
:10087200DF0E7403F090DF0F7423F090DF10741119
:10088200F090DF117445F090DF127407F090DF13DF
:100892007430F090DF147414F090DF157416F09039
:1008A200DF16746CF090DF177403F090DF18744059
:1008B200F090DF197491F090DF1A7456F090DF1BFC
:1008C2007410F090DF1C74A9F090DF1D740AF09090
:1008D200DF1EE4F090DF1F7411F090DF2E74FEF043
:1008E2007591C0439A0175E10490F0E37404F090AD
:1008F200000112013A75E10190F0E37401F09000F9
:100902000102013AAFF0AE83E58290F10BF0EEA363
:10091200F0EFA3F090006412013A90F10BE0FDA316
:10092200E0FEA3E0FF8D828E838FF0120D17F5D9C2
:1009320022AFF0AE83E58290F110F0EEA3F0EFA3C8
:10094200F090F0E3E0FFBF0202800690F0E3740251
:10095200F090000112013A90F113E5D9F0E0FF9016
:10096200F10EE0FDA3E0FE8F037C00C3EB9DEC9E45
:1009720040012290F110E0FCA3E0FDA3E0FE8C8296
:100982008D838EF0EF120CDC7B01C3EB9F5016EBD4
:100992002CF8E43DF98E02888289838AF0E5D91227
:1009A2000CDC0B80E575E10490F0E37404F0900038
:1009B2000102013A2089FDC28922E58290F114F0F8
:1009C200C28990F114E0FFC374049FE433FE704ABD
:1009D200EF2F9009D8738008804080098025803AE3
:1009E20075E100803590DF03E4F0758202C007C034
:1009F200061204877582011204BDD006D00775E184
:100A0200028017758201C007C00612048775820230
:100A12001204BDD006D00775E103EE7021EF2F90CE
:100A22000A25738019801780158002801190F109C0
:0F0A32007405F0E4A3F090F0A0F5F0020906229D
:010D3F004073
:030A41002222224C
:02010F00C2012B
:100A440090F1B9E4F090F1BAF043868075C4027570
:100A5400C2A375C50843F30C43FD0853FDFBD2AA9A
:100A640043A804C2E9C28B43864022AFF0AE83E5BB
:100A74008290F19AF0EEA3F0EFA3F0E58620E0FB7C
:100A84005386BFC2E97582031204BD90F199E0FF59
:100A940090F159F090F1BAE4F090F19AE0FCA3E0FF
:100AA400FDA3E0FE90F1BAE0FBC39F502EC0078B7C
:100AB40002EA042459F9E434F1FAEB2CF8E43DFB9E
:100AC4008E0788828B838FF0120D1789828A83F0B8
:100AD40090F1BAE02401F0D00780C990F159E0F513
:100AE400C143864022AFF0AE83E58290F19EF0EEE2
:100AF400A3F0EFA3F0E58620E0FB5386BFC2E975BF
:100B040082031204BD90F19DE090F159F090F19EA2
:100B1400E0FDA3E0FEA3E0FF8D828E838FF0120D33
:100B24001790F15AF08D828E838FF0120D17F5C154
:100B340043864022AFF0AE83E58290F1A3F0EEA3AA
:100B4400F0EFA3F0438640C28B90F1B9E4F090F14A
:100B5400A3E0FDA3E0FEA3E0FF90F1A1E0FBA3E08E
:100B6400FC90F1B9E0F97A00C3E99BEA9C50243087
:100B74008BFD90F1B9E02DF8E43EF98F028882896B
:100B8400838AF0E5C1120CDCC28B90F1B9E0240138
:100B9400F080CE5386BF2290F11975F0002290F1B7
:040BA400B9E4F0229E
:030D4000000000B0
:040000000200B63212
:01000B0032C2
:0100130032BA
:01001B0032B2
:0100230032AA
:01002B0032A2
:01003300329A
:01003B003292
:0300430002023086
:100048000000E2FBEAF2802C0000E0FBEAF08024EA
:10005800E6B50202EBF62200E2B50202EBF222005C
:10006800E0B50202EBF02230F6E0A88220F5D3EAF0
:10007800C6F582228B822230F6E6A88220F5D98046
:01008800CFA8
:0301110002008960
:03008900020BCC9B
:100BA80053C680E5BE30E60512011480F643BE0444
:100BB800D2AF7F00BF0B00500AC007120115D00743
:100BC8000F80F12290F1A67453F090F1A77474F09D
:100BD80090F1A87461F090F1A97472F090F1AA7480
:100BE80074F090F1AB740AF090F1ACE4F0120BA839
:100BF800120A4412080C12031990F0A0743FF090E6
:100C0800F0A123F090F0A27401F07F03EF24A0F587
:100C180082E434F0F58374D3F00FBF3F0040ED90C9
:100C2800F0DF747FF090F1997406F090F1A675F0FA
:100C380000120A6F7582021209BC30010E53D1FEF0
:100C4800C20190F11975F0001205C53000E653D1C4
:0E0C5800FDC20090F06075F0001204F280D62C
:0600E500E478FFF6D8FDEF
:100C6600AFF0AE83E58290F1B2F0EEA3F0EFA3F021
:100C760090F1B2E0F50BA3E0F50CA3E0F50DAA0B9D
:100C8600AB0CAC0D90F1ADE0F508A3E0F509A3E0DF
:100C9600F50A90F1B0E0F8A3E0F98806890718B8DC
:100CA600FF0119EE4F6025850882850983850AF0C4
:100CB600120D17FFA38582088583098A828B838C90
:100CC600F0EF120CDCA3AA82AB8380CE850B828563
:060CD6000C83850DF022E5
:1000C3007904E94400601B7A01900D3F78B8759379
:1000D300F1E493F2A308B800020593D9F4DAF275B8
:0200E30093FF89
:10008C00C000A88118C0D0B6001B18B64800401597
:10009C00B66F005010C0E0E65407B406005004E6FA
:0A00AC0054F8F6D0E0D0D0D00032B6
:100CDC0020F71130F6138883A88220F509F6A88333
:100CEC007583002280FEF280F5F022AA83AB828B02
:100CFC00F090F1B6E0A4F8A9F08AF0E0A429F98B01
:0B0D0C00F0A3E0A429F58388822222D6
:1000EB007800E84400600A79007593F0E4F309D8CE
:1000FB00FC78B8E84401600C790290F000E4F0A3BE
:04010B00D8FCD9FA49
:0D00B600758121120D33E58260030200897F
:100D170020F71430F6148883A88220F507E6A88305
:100D270075830022E280F7E49322E0227582002295
:00000001FF
