:100114002243FE026390027EA87F61C007C00612DC
:100124000114120114120114D006D0071EBEFF01DF
:100134001FEE4F70E622AF83E58290F000F0EFA34C
:10014400F090F000E0FEA3E0FF90F1ABEEF0EFA33F
:10015400F0900FA0120C20AE82AF838E048F057E28
:10016400007F008C008D018E028F031CBCFF091DD3
:10017400BDFF051EBEFF011FE8494A4B70E522AFD3
:10018400F0AE83E58290F004F0EEA3F0EFA3F090DC
:10019400F004E0FDA3E0FEA3E0FF90F002E0FBA387
:1001A400E0FC79007A00C005C006C00789008A0710
:1001B400C3E89BEF9CD007D006D005502BC003C0EA
:1001C40004E929F8EA33FCE82DF8EC3EFC8F0388B7
:1001D400828C838BF0E4120C05A3120C0509B90080
:1001E400010AD004D00380BE22C021C0E0C0F0C008
:1001F40082C083C007C006C005C004C003C002C0DB
:1002040001C000C0D075D00090F02F7444F090F07D
:1002140030744DF090F0317441F090F0327420F06D
:1002240090F0337449F090F0347453F090F0351436
:10023400F090F036740AF090F037E4F090F03874EF
:1002440044F090F039744DF090F03A7441F090F02D
:100254003B7420F090F03C7449F090F03D7446F00B
:1002640090F03E740AF090F03FE4F0120115E5D1ED
:10027400FF30E00953D1FEC28BD2018030E5D1FFBB
:1002840030E10953D1FDC289D2008021AED17F0073
:10029400EE2EFEEF33FFEE2EFEEF33FF4E600E53D5
:1002A400D1FBC28975E10490F0DB7404F0C2C0D0C4
:1002B400D0D000D001D002D003D004D005D006D0D5
:1002C40007D083D082D0F0D0E0D02102008C7F0010
:1002D400EF75F008A42407FD74F035F0FE7C00905F
:1002E400F1A27460F0740CA3F07480A3F090F1A5F3
:1002F400C4F0E4A3F08D828E838CF0C007120B8FC0
:10030400D0070FBF050040C875D4077E077FF08F64
:10031400D575D20F7E0F7FF08FD37EC17FDF8F061E
:1003240090F007EEF07FC190F008EFF07E117FF1BE
:100334008F0690F009EEF07F1190F00AEFF090F044
:100344000B743FF090F00C04F090F00D744EF090AC
:10035400F00E741AF07ED97FDF8F0690F00FEEF066
:100364007FD990F010EFF07E587FF08F0690F01157
:10037400EEF07F5890F012EFF090F013743FF0908D
:10038400F01404F090F0157453F090F016741AF011
:100394007E587FF08F0690F017EEF07F5890F0189B
:1003A400EFF07ED97FDF8F0690F019EEF07FD990C1
:1003B400F01AEFF090F01B743FF090F01C04F090F2
:1003C400F01D7453F090F01E744AF043D60590006B
:1003D4000112013A43B80122E58290F040F0E0F5C1
:1003E400F005F07401800225E0D5F0FB4480F5D6D9
:1003F40022E58290F041F0E0F5F005F0740180020E
:1004040025E0D5F0FB42D622E58290F042F0E0F5FB
:10041400F005F07401800225E0D5F0FBF452D622F9
:080C600000000000000000008C
:10042400AFF0AE83E58290F043F0EEA3F0EFA3F0DB
:1004340090F0467468F090F0477461F090F048745E
:100444006EF090F0497464F090F04A746CF090F09F
:100454004B7465F090F04C7472F090F04D740AF0A7
:1004640090F04EE4F090F043E0FDA3E0FEA3E0FF43
:1004740074022DFAE43EFB8F048A828B838CF01283
:100484000C40FC74012DF9E43EFA8F0389828A83BF
:100494008BF0120C40F9743F2DF8E43EFA8F038878
:1004A400828A838BF0120C40F5088D008E028F0334
:1004B40090F1917440F0E4A3F088828A838BF0C0B9
:1004C40007C006C005C004C001120A20D001D00430
:1004D400D005D006D007B97E07747FB50802800125
:1004E40022BC0102800ABC10028038BC116280491F
:1004F40090F04F7401F090F191F0E4A3F090F04F7C
:10050400F5F0C007C006C005120A20D005D006D0F9
:100514000790F1917440F0E4A3F08D828E838FF004
:10052400020A2090F0507410F090F191C4F0E4A30A
:10053400F090F050F5F0020A2090F0517411F09010
:10054400F1917401F0E4A3F090F051F5F0020A2067
:1005540022AFF0AE83E58290F052F0EEA3F0EFA369
:10056400F090F052E0FDA3E0FEA3E0FF74022DFA48
:10057400E43EFB8F048A828B838CF0120C40FC7463
:10058400012DF9E43EFA8F0389828A838BF0120CE1
:1005940040F9743F2DFDE43EFE8D828E838FF01270
:1005A4000C40FFB97E05BF7F02800122BC0102809E
:1005B4000BBC10028027BC110280442290F05574B9
:1005C40001F090F191F0E4A3F090F055F5F0120AE7
:1005D400207F02C007120115D007DFF72290F056E2
:1005E4007410F090F191C4F0E4A3F090F056F5F09B
:1005F400120A207F04C007120115D007DFF72290EA
:10060400F0577411F090F1917401F0E4A3F090F0BC
:1006140057F5F0120A207F06C007120115D007DF34
:10062400F77F0090F1027404F0E4A3F090F098F5E1
:10063400F0C0071208ADD0070FBF0A0040E522C082
:1006440021C0E0C0F0C082C083C007C006C005C09E
:1006540004C003C002C001C000C0D075D00090F037
:10066400DC744FF090F0DD7476F090F0DE7465F099
:1006740090F0DF7472F090F0E07466F090F0E17442
:100684006CF090F0E2746FF090F0E37477F090F017
:10069400E4740AF090F0E5E4F090F0E67454F0901D
:1006A400F0E77458F090F0E87420F090F0E9745595
:1006B400F090F0EA746EF090F0EB7464F090F0EC6B
:1006C40004F090F0ED7472F090F0EE7466F090F037
:1006D400EF746CF090F0F0746FF090F0F17477F0C8
:1006E40090F0F2740AF090F0F3E4F090F0F47452A5
:1006F400F090F0F57458F090F0F67420F090F0F764
:100704007455F090F0F8746EF090F0F97464F09011
:10071400F0FA04F090F0FB7472F090F0FC7466F060
:1007240090F0FD746CF090F0FE746FF090F0FF7434
:1007340077F090F100740AF090F101E4F075E104AF
:1007440090F0DB7404F090F1917409F0E4A3F0905C
:10075400F0DCF5F0120A20E5E930E71390F191742A
:100764000EF0E4A3F090F0E6F5F0120A208017E50D
:10077400E9FF30E61190F191740EF0E4A3F090F0EB
:10078400F4F5F0120A20D0D0D000D001D002D0036A
:10079400D004D005D006D007D083D082D0F0D0E0EA
:1007A400D02102008C90F0D8E4F090F0D9F090DFE2
:1007B4002F742EF090DF30E4F090DF31F090DF0002
:1007C40074D3F090DF017491F090DF0274FFF09025
:1007D400DF037404F090DF047401F090DF05E4F0AB
:1007E40090DF06F090DF07740AF090DF08E4F090E1
:1007F400DF097465F090DF0A7460F090DF0BE4F0B9
:1008040090DF0C7476F090DF0D74A3F090DF0E741B
:1008140003F090DF0F7423F090DF107411F090DF79
:10082400117445F090DF127407F090DF13743EF0FA
:1008340090DF147404F090DF157416F090DF1674D2
:100844006CF090DF177403F090DF187440F090DFC1
:10085400197491F090DF1A7456F090DF1B7410F045
:1008640090DF1C74A9F090DF1D740AF090DF1EE481
:10087400F090DF1F7411F090DF2E74FEF090DF39DA
:100884007480F0D2A87591C0439A0175E10490F088
:10089400DB7404F090000112013A75E10190F0DB81
:1008A4007401F090000102013AAFF0AE83E582904A
:1008B400F104F0EEA3F0EFA3F090000112013A75F9
:1008C400E10090000112013A75E10390F0DB74033A
:1008D400F090000112013A90F104E0FDA3E0FEA3C0
:1008E400E0FF8D828E838FF0120C40F5D9C007C0D3
:1008F40006C005120115120115D005D006D00790C7
:10090400F102E0FBA3E0FC7A018A007900C3E89BD2
:10091400E99C503CC003C004900001C007C006C05D
:1009240005C004C003C00212013AD002D003D004AF
:10093400D005D006D007EA2DF8E43EF98F0488826A
:1009440089838CF0120C40F5D90AD004D00380B905
:1009540075E10190F0DB7401F090000112013A7529
:10096400E10490F0DB7404F090000102013AAFF06E
:10097400AE83E58290F109F0EEA3F0EFA3F090F0DE
:10098400DBE0FFBF0202800690F0DB7402F090000F
:100994000112013A90F10CE5D9F0E0FF90F107E083
:1009A400FDA3E0FE8F037C00C3EB9DEC9E4001227F
:1009B40090F109E0FCA3E0FDA3E0FE8C828D838E20
:1009C400F0EF120C057B01C3EB9F5016EB2CF8E4FF
:1009D4003DF98E02888289838AF0E5D9120C050BD1
:1009E40080E575E10490F0DB7404F09000010201ED
:0709F4003A10890280FB228A
:010C6800404B
:0309FB0022222293
:02010F00C2012B
:1009FE0090F1AEE4F043868075C40275C2A375C54E
:100A0E000843F30C43FD0853FDFBD2AAC2E943860B
:100A1E004022AFF0AE83E58290F193F0EEA3F0EFBB
:100A2E00A3F05386BFC2E990F1AFE4F090F193E0EA
:100A3E00FDA3E0FEA3E0FF90F191E0FBA3E0FC90AC
:100A4E00F1AFE0FAF87900C3E89BE99C5024EA2D57
:100A5E00F8E43EF98F02888289838AF0120C40F501
:100A6E00C1E58630E1FB5386FD90F1AFE02401F045
:100A7E0080CD90F1AFE4F043864022AFF0AE83E537
:100A8E008290F198F0EEA3F0EFA3F0438640C28B74
:100A9E0090F1AEE4F090F198E0FDA3E0FEA3E0FF4C
:100AAE0090F196E0FBA3E0FC90F1AEE0F97A00C382
:100ABE00E99BEA9C5024308BFD90F1AEE02DF8E4DA
:100ACE003EF98F02888289838AF0E5C1120C05C235
:100ADE008B90F1AEE02401F080CE5386BF2290F1D0
:0B0AEE001175F0002290F1AEE4F02240
:030C690000000088
:040000000200B63212
:01000B0032C2
:0100130032BA
:01001B0032B2
:0100230032AA
:01002B0032A2
:01003300329A
:01003B003292
:030043000201EDCA
:100048000000E2FBEAF2802C0000E0FBEAF08024EA
:10005800E6B50202EBF62200E2B50202EBF222005C
:10006800E0B50202EBF02230F6E0A88220F5D3EAF0
:10007800C6F582228B822230F6E6A88220F5D98046
:01008800CFA8
:0301110002008960
:03008900020B1D4A
:100AF90053C680E5BE30E60512011480F643BE04F4
:100B0900D2AF7F00BF0B00500AC007120115D007F2
:100B19000F80F12290F19B7453F090F19C7474F062
:100B290090F19D7461F090F19E7472F090F19F7450
:100B390074F090F1A0740AF090F1A1E4F0120AF9AE
:100B49001209FE1207A91202D290F1AEE4F090F157
:100B5900917406F0E4A3F090F19BF5F0120A2030AD
:100B6900010E53D1FEC20190F11175F00012055525
:100B79003000EC12011553D1FDC20090F05875F008
:060B89000012042480D9D3
:0600E500E478FFF6D8FDEF
:100B8F00AFF0AE83E58290F1A7F0EEA3F0EFA3F004
:100B9F0090F1A7E0F50CA3E0F50DA3E0F50EAA0C7C
:100BAF00AB0DAC0E90F1A2E0F509A3E0F50AA3E0BE
:100BBF00F50B90F1A5E0F8A3E0F98806890718B8BE
:100BCF00FF0119EE4F6025850982850A83850BF099
:100BDF00120C40FFA385820985830A8A828B838C3E
:100BEF00F0EF120C05A3AA82AB8380CE850C828511
:060BFF000D83850EF022BB
:1000C3007904E94400601B7A01900C6878AD75935C
:1000D300F1E493F2A308B800020593D9F4DAF275B8
:0200E30093FF89
:10008C00C000A88118C0D0B6001B18B64800401597
:10009C00B66F005010C0E0E65407B406005004E6FA
:0A00AC0054F8F6D0E0D0D0D00032B6
:100C050020F71130F6138883A88220F509F6A8830A
:100C15007583002280FEF280F5F022AA83AB828BD9
:100C2500F090F1ABE0A4F8A9F08AF0E0A429F98BE3
:0B0C3500F0A3E0A429F58388822222AE
:1000EB007800E84400600A79007593F0E4F309D8CE
:1000FB00FC78ADE84401600C790290F000E4F0A3C9
:04010B00D8FCD9FA49
:0D00B600758121120C5CE582600302008957
:100C400020F71430F6148883A88220F507E6A883DD
:100C500075830022E280F7E49322E022758200226D
:00000001FF
