:100114002243FE026390027EA87F61C007C00612DC
:100124000114120114120114D006D0071EBEFF01DF
:100134001FEE4F70E622AF83E58290F000F0EFA34C
:10014400F090F000E0FEA3E0FF90F1AAEEF0EFA340
:10015400F0900FA0120BFCAE82AF838E048F057E4D
:10016400007F008C008D018E028F031CBCFF091DD3
:10017400BDFF051EBEFF011FE8494A4B6003008016
:10018400E222AF83E58290F002F0EFA3F075E40081
:1001940075E20075E40C90F002E0FEA3E0FF90F13C
:1001A400AAEEF0EFA3F09000BB120BFCAE82AF837B
:1001B40043E402ACE27D00C3EC9EED9F40F575E4A0
:1001C4000022AFF0AE83E58290F006F0EEA3F0EFEC
:1001D400A3F090F006E0FDA3E0FEA3E0FF90F0049E
:1001E400E0FBA3E0FC79007A00C005C006C00789E3
:1001F400008A07C3E89BEF9CD007D006D005502B9C
:10020400C003C004E929F8EA33FCE82DF8EC3EFC0D
:100214008F0388828C838BF0E4120BE1A3120BE131
:1002240009B900010AD004D00380BE22C021C0E075
:10023400C0F0C082C083C007C006C005C004C003AC
:10024400C002C001C000C0D075D00090F031744429
:10025400F090F032744DF090F0337441F090F0343B
:100264007420F090F0357449F090F0367453F090A7
:10027400F03714F090F038740AF090F039E4F0900C
:10028400F03A7444F090F03B744DF090F03C7441BB
:10029400F090F03D7420F090F03E7449F090F03FFF
:1002A4007446F090F040740AF090F041E4F0E5D127
:1002B400FF30E00953D1FEC28BD2018020E5D1FF8B
:1002C40030E10953D1FDC289D2008011E5D1FF305C
:1002D400E20B53D1FBC28975820212040CC2C0D056
:1002E400D0D000D001D002D003D004D005D006D0A5
:1002F40007D083D082D0F0D0E0D02102008C7F00E0
:10030400EF75F008A42409FD74F035F0FE7C00902C
:10031400F1A1743CF0740CA3F07480A3F090F1A4E8
:10032400C4F0E4A3F08D828E838CF0C007120B6BB3
:10033400D0070FBF050040C875D4097E097FF08F30
:10034400D575D2117E117FF08FD37EC17FDF8F06EA
:1003540090F009EEF07FC190F00AEFF07E107FF18B
:100364008F0690F00BEEF07F1090F00CEFF090F011
:100374000D743FF090F00E04F090F00F744EF09076
:10038400F010741AF07ED97FDF8F0690F011EEF032
:100394007FD990F012EFF07E5A7FF08F0690F01321
:1003A400EEF07F5A90F014EFF090F015743FF09057
:1003B400F01604F090F0177453F090F018741AF0DB
:1003C4007E9A7FF08F0690F019EEF07F9A90F01AE3
:1003D400EFF07ED97FDF8F0690F01BEEF07FD9908F
:1003E400F01CEFF090F01D7420F090F01E23F090BC
:1003F400F01F7453F090F020744AF043D60190003B
:100404000112013A43B80122E58290F042F0E0F58E
:10041400F005F07401800225E0D5F0FB4480F5D6A8
:1004240022E58290F043F0E0F5F005F074018002DB
:1004340025E0D5F0FB42D622E58290F044F0E0F5C9
:10044400F005F07401800225E0D5F0FBF452D622C9
:080C3C000000000000000000B0
:10045400AFF0AE83E58290F045F0EEA3F0EFA3F0A9
:1004640090F0487468F090F0497461F090F04A7428
:100474006EF090F04B7464F090F04C746CF090F06B
:100484004D7465F090F04E7472F090F04F740AF071
:1004940090F050E4F090F045E0FDA3E0FEA3E0FF0F
:1004A40074022DFAE43EFB8F048A828B838CF01253
:1004B4000C1CFC74012DF9E43EFA8F0389828A83B3
:1004C4008BF0120C1CF9743F2DF8E43EFA8F03886C
:1004D400828A838BF0120C1CF5088D008E028F0328
:1004E40090F1907440F0E4A3F088828A838BF0C08A
:1004F40007C006C005C004C0011209EBD001D00436
:10050400D005D006D007B97E07747FB508028001F4
:1005140022BC0102800ABC10028038BC11628049EE
:1005240090F0517401F090F190F0E4A3F090F05148
:10053400F5F0C007C006C0051209EBD005D006D0FF
:100544000790F1907440F0E4A3F08D828E838FF0D5
:100554000209EB90F0527410F090F190C4F0E4A30F
:10056400F090F052F5F00209EB90F0537411F09012
:10057400F1907401F0E4A3F090F053F5F00209EB6C
:1005840022AFF0AE83E58290F054F0EEA3F0EFA337
:10059400F090F054E0FDA3E0FEA3E0FF74022DFA16
:1005A400E43EFB8F048A828B838CF0120C1CFC7457
:1005B400012DF9E43EFA8F0389828A838BF0120CB1
:1005C4001CF9743F2DFDE43EFE8D828E838FF01264
:1005D4000C1CFFB97E05BF7F02800122BC01028092
:1005E4000BBC10028027BC110280442290F0577487
:1005F40001F090F190F0E4A3F090F057F5F01209B7
:10060400EB7F02C007120115D007DFF72290F058E4
:100614007410F090F190C4F0E4A3F090F058F5F069
:100624001209EB7F04C007120115D007DFF72290EF
:10063400F0597411F090F1907401F0E4A3F090F08B
:1006440059F5F01209EB7F06C007120115D007DF38
:10065400F77F0090F1037404F0E4A3F090F09AF5AE
:10066400F0C0071208CAD0070FBF0A0040E522C035
:1006740021C0E0C0F0C082C083C007C006C005C06E
:1006840004C003C002C001C000C0D075D00090F007
:10069400DE744FF090F0DF7476F090F0E07465F063
:1006A40090F0E17472F090F0E27466F090F0E3740C
:1006B4006CF090F0E4746FF090F0E57477F090F0E3
:1006C400E6740AF090F0E7E4F090F0E87454F090E7
:1006D400F0E97458F090F0EA7420F090F0EB74555F
:1006E400F090F0EC746EF090F0ED7464F090F0EE35
:1006F40004F090F0EF7472F090F0F07466F090F003
:10070400F1746CF090F0F2746FF090F0F37477F091
:1007140090F0F4740AF090F0F5E4F090F0F674526E
:10072400F090F0F77458F090F0F87420F090F0F92D
:10073400744FF090F0FA7476F090F0FB7465F090DA
:10074400F0FC7472F090F0FD7466F090F0FE746C3E
:10075400F090F0FF746FF090F1007477F090F10175
:10076400740AF090F102E4F075E10490F1907409D8
:10077400F0E4A3F090F0DEF5F01209EBE5E930E7E0
:100784001390F190740EF0E4A3F090F0E8F5F012F9
:1007940009EB8017E5E9FF30E61190F190740DF054
:1007A400E4A3F090F0F6F5F01209EBD0D0D000D02D
:1007B40001D002D003D004D005D006D007D083D016
:1007C40082D0F0D0E0D02102008C90F0DAE4F090F6
:1007D400F0DBF090DF2F742EF090DF30E4F090DF48
:1007E40031F090DF0074D3F090DF017491F090DF6A
:1007F4000274FFF090DF037404F090DF047401F0DE
:1008040090DF05E4F090DF06F090DF07740AF090C3
:10081400DF08E4F090DF097465F090DF0A7460F09B
:1008240090DF0BE4F090DF0C7476F090DF0D74A38E
:10083400F090DF0E7403F090DF0F7423F090DF105C
:100844007411F090DF117445F090DF127407F0908A
:10085400DF137430F090DF147414F090DF15741605
:10086400F090DF16746CF090DF177403F090DF18CB
:100874007440F090DF197491F090DF1A7456F09080
:10088400DF1B7410F090DF1C74A9F090DF1D740A54
:10089400F090DF1EE4F090DF1F7411F090DF2E74EF
:1008A400FEF07591C0439A0175E10490F0DD740483
:1008B400F090000112013A75E10190F0DD7401F04D
:1008C40090000102013AC28975E1019000641201AD
:1008D4003A75D90522AFF0AE83E58290F107F0EEC8
:1008E400A3F0EFA3F090F0DDE0FFBF0202800690DA
:1008F400F0DD7402F090000112013A90F10AE5D99A
:10090400F0E0FF90F105E0FDA3E0FE8F037C00C35F
:10091400EB9DEC9E40012290F107E0FCA3E0FDA3D7
:10092400E0FE8C828D838EF0EF120BE17B01C3EB32
:100934009F5016EB2CF8E43DF98E02888289838A55
:10094400F0E5D9120BE10B80E575E10490F0DD745C
:1009540004F090000102013A2089FDC28922E58257
:1009640090F10BF0C28990F10BE0FFC374049FE493
:1009740033FE7029EF2F90097E738008801F800951
:100984008012801975E103801453D6FB43D6037596
:10099400E102800953D6FD43D60575E103EE7021CB
:1009A400EF2F9009AA738019801780158002801197
:1009B40090F1037405F0E4A3F090F09AF5F00208C6
:0209C400CA2245
:010C4400406F
:0309C600222222C8
:02010F00C2012B
:1009C90090F1ADE4F043868075C40275C2A375C584
:1009D9000843F30C43FD0853FDFBD2AAC2E9438641
:1009E9004022AFF0AE83E58290F192F0EEA3F0EFF2
:1009F900A3F05386BFC2E990F1AEE4F090F192E022
:100A0900FDA3E0FEA3E0FF90F190E0FBA3E0FC90E2
:100A1900F1AEE0FAF87900C3E89BE99C5024EA2D8D
:100A2900F8E43EF98F02888289838AF0120C1CF55A
:100A3900C1E58630E1FB5386FD90F1AEE02401F07B
:100A490080CD90F1AEE4F043864022AFF0AE83E56D
:100A59008290F197F0EEA3F0EFA3F0438640C28BAA
:100A690090F1ADE4F090F197E0FDA3E0FEA3E0FF83
:100A790090F195E0FBA3E0FC90F1ADE0F97A00C3B9
:100A8900E99BEA9C5024308BFD90F1ADE02DF8E410
:100A99003EF98F02888289838AF0E5C1120BE1C28F
:100AA9008B90F1ADE02401F080CE5386BF2290F106
:0B0AB9001075F0002290F1ADE4F02277
:030C4500000000AC
:040000000200B63212
:01000B0032C2
:0100130032BA
:01001B0032B2
:0100230032AA
:01002B0032A2
:01003300329A
:01003B003292
:0300430002023086
:100048000000E2FBEAF2802C0000E0FBEAF08024EA
:10005800E6B50202EBF62200E2B50202EBF222005C
:10006800E0B50202EBF02230F6E0A88220F5D3EAF0
:10007800C6F582228B822230F6E6A88220F5D98046
:01008800CFA8
:0301110002008960
:03008900020AE880
:100AC40053C680E5BE30E60512011480F643BE0429
:100AD400D2AF7F00BF0B00500AC007120115D00728
:100AE4000F80F12290F19A7453F090F19B7474F09A
:100AF40090F19C7461F090F19D7472F090F19E7489
:100B040074F090F19F740AF090F1A0E4F0120AC41A
:100B14001209C91207CE12030290F1ADE4F090F06D
:100B24009A7404F090F09B747EF090F09C7401F041
:100B340090F09D74D9F090F09E747FF090F19074D1
:100B440006F0E4A3F090F19AF5F01209EB75E104D4
:100B540090000112013A75E10090000112013A750A
:070B6400820312096280F810
:0600E500E478FFF6D8FDEF
:100B6B00AFF0AE83E58290F1A6F0EEA3F0EFA3F029
:100B7B0090F1A6E0F50CA3E0F50DA3E0F50EAA0CA1
:100B8B00AB0DAC0E90F1A1E0F509A3E0F50AA3E0E3
:100B9B00F50B90F1A4E0F8A3E0F98806890718B8E3
:100BAB00FF0119EE4F6025850982850A83850BF0BD
:100BBB00120C1CFFA385820985830A8A828B838C86
:100BCB00F0EF120BE1A3AA82AB8380CE850C82855A
:060BDB000D83850EF022DF
:1000C3007904E94400601B7A01900C4478AC759381
:1000D300F1E493F2A308B800020593D9F4DAF275B8
:0200E30093FF89
:10008C00C000A88118C0D0B6001B18B64800401597
:10009C00B66F005010C0E0E65407B406005004E6FA
:0A00AC0054F8F6D0E0D0D0D00032B6
:100BE10020F71130F6138883A88220F509F6A8832F
:100BF1007583002280FEF280F5F022AA83AB828BFE
:100C0100F090F1AAE0A4F8A9F08AF0E0A429F98B08
:0B0C1100F0A3E0A429F58388822222D2
:1000EB007800E84400600A79007593F0E4F309D8CE
:1000FB00FC78ACE84401600C790290F000E4F0A3CA
:04010B00D8FCD9FA49
:0D00B600758121120C38E58260030200897B
:100C1C0020F71430F6148883A88220F507E6A88301
:100C2C0075830022E280F7E49322E0227582002291
:00000001FF
