:100114002243FE026390027EA87F61C007C00612DC
:100124000114120114120114D006D0071EBEFF01DF
:100134001FEE4F70E622AF83E58290F000F0EFA34C
:10014400F090F000E0FEA3E0FF90F1B1EEF0EFA339
:10015400F0900FA0120CDAAE82AF838E048F057E6E
:10016400007F008C008D018E028F031CBCFF091DD3
:10017400BDFF051EBEFF011FE8494A4B6003008016
:10018400E222AF83E58290F002F0EFA3F075E40081
:1001940075E20075E40C90F002E0FEA3E0FF90F13C
:1001A400B1EEF0EFA3F09000BB120CDAAE82AF8395
:1001B40043E402ACE27D00C3EC9EED9F40F575E4A0
:1001C4000022AFF0AE83E58290F006F0EEA3F0EFEC
:1001D400A3F090F006E0FDA3E0FEA3E0FF90F0049E
:1001E400E0FBA3E0FC79007A00C005C006C00789E3
:1001F400008A07C3E89BEF9CD007D006D005502B9C
:10020400C003C004E929F8EA33FCE82DF8EC3EFC0D
:100214008F0388828C838BF0E4120CBFA3120CBF73
:1002240009B900010AD004D00380BE22C021C0E075
:10023400C0F0C082C083C007C006C005C004C003AC
:10024400C002C001C000C0D075D00090F031744429
:10025400F090F032744DF090F0337441F090F0343B
:100264007420F090F0357449F090F0367453F090A7
:10027400F03714F090F038740AF090F039E4F0900C
:10028400F03A7444F090F03B744DF090F03C7441BB
:10029400F090F03D7420F090F03E7449F090F03FFF
:1002A4007446F090F040740AF090F041E4F0E5D127
:1002B40030E00F53D1FEC28BD20175820012048C40
:1002C4008037E5D130E10F53D1FDC289D200758268
:1002D4000112048C8023E5D130E20D53D1FBC28995
:1002E40075820212048C8011E5D1FF30E30B53D1E7
:1002F400F7C2E975820312048CC2C0D0D0D000D0FA
:1003040001D002D003D004D005D006D007D083D0CA
:1003140082D0F0D0E0D02102008C7F00EF75F0088D
:10032400A42409FD74F035F0FE7C0090F1A8741A41
:10033400F0740DA3F07480A3F090F1ABC4F0E4A3C7
:10034400F08D828E838CF0C007120C49D0070FBF4A
:10035400050040C875D4097E097FF08FD575D21188
:100364007E117FF08FD37EC17FDF8F0690F009EE80
:10037400F07FC190F00AEFF07E147FF18F0690F0C9
:100384000BEEF07F1490F00CEFF090F00D7420F071
:1003940090F00E23F090F00F740EF090F010741A99
:1003A400F07ED97FDF8F0690F011EEF07FD990F0C8
:1003B40012EFF07E5B7FF08F0690F013EEF07F5B20
:1003C40090F014EFF090F0157420F090F01623F0F4
:1003D40090F0177453F090F018741AF07E9B7FF02D
:1003E4008F0690F019EEF07F9B90F01AEFF07ED913
:1003F4007FDF8F0690F01BEEF07FD990F01CEFF0BA
:1004040090F01D7420F090F01E23F090F01F7453B0
:10041400F090F020744AF07F5490F022EFF07E5474
:100424007FF18F0690F021EEF07EC17FDF8F069082
:10043400F023EEF07FC190F024EFF090F0257420CB
:10044400F090F02623F090F027740FF090F02874C9
:100454004AF043D60B00000000000000000000003A
:100464000000000000000000000000000000000088
:100474000000000000000000000000000000000078
:10048400000043B801C2C022E58290F042F0E0FFD0
:100494008FF005F07401800225E0D5F0FB4480F56F
:1004A400D6000000000022E58290F043F0E0F5F071
:1004B40005F07401800225E0D5F0FBF5D722E58232
:1004C40090F044F0E0F5F005F07401800225E0D5E9
:1004D400F0FBFF42D6000000000022E58290F045C8
:1004E400F0E0F5F005F07401800225E0D5F0FBF4AE
:0304F40052D622BB
:080D1A000000000000000000D1
:1004F700AFF0AE83E58290F046F0EEA3F0EFA3F005
:1005070090F0497468F090F04A7461F090F04B7481
:100517006EF090F04C7464F090F04D746CF090F0C5
:100527004E7465F090F04F7472F090F050740AF0CA
:1005370090F051E4F090F046E0FDA3E0FEA3E0FF69
:1005470074022DFAE43EFB8F048A828B838CF012AF
:100557000CFAFC74012DF9E43EFA8F0389828A8331
:100567008BF0120CFAF9743F2DFDE43EFE8D828E5E
:10057700838FF0120CFAFFB97E05BF7F028001223C
:10058700BC0102800ABC10028018BC113E80279073
:10059700F0527401F090F198F090F05275F000026B
:1005A7000AD190F0537410F090F194C4F090F05386
:1005B70075F000020A5790F0547411F090F194749A
:1005C70001F090F05475F000020A5722AFF0AE83A5
:1005D700E58290F055F0EEA3F0EFA3F090F055E030
:1005E700FDA3E0FEA3E0FF74022DFAE43EFB8F04B7
:1005F7008A828B838CF0120CFAFC74012DF9E43E8D
:10060700FA8F0389828A838BF0120CFAF9743F2DD3
:10061700FDE43EFE8D828E838FF0120CFAFFB97EC9
:1006270005BF7F02800122BC0102800ABC10028044
:100637001CBC1161802D90F0587401F090F198F076
:1006470090F05875F000120AD1C201804890F05915
:100657007410F090F194C4F090F05975F000120AFC
:1006670057803290F05A7411F090F1947401F09021
:10067700F05A75F000120A577F0090F1047404F0E5
:10068700E4A3F090F09BF5F0C0071208EED0070F37
:10069700BF0A0040E5C20122C021C0E0C0F0C0820D
:1006A700C083C007C006C005C004C003C002C001A4
:1006B700C000C0D075D00090F0DF744FF090F0E02C
:1006C7007476F090F0E17465F090F0E27472F09057
:1006D700F0E37466F090F0E4746CF090F0E5746FFA
:1006E700F090F0E67477F090F0E7740AF090F0E895
:1006F700E4F090F0E97454F090F0EA7458F090F058
:10070700EB7420F090F0EC7455F090F0ED746EF00F
:1007170090F0EE7464F090F0EF04F090F0F07472E3
:10072700F090F0F17466F090F0F2746CF090F0F3E2
:10073700746FF090F0F47477F090F0F5740AF0901D
:10074700F0F6E4F090F0F77452F090F0F87458F087
:1007570090F0F97420F090F0FA744FF090F0FB7479
:1007670076F090F0FC7465F090F0FD7472F090F004
:10077700FE7466F090F0FF746CF090F100746FF007
:1007870090F1017477F090F102740AF090F103E4AC
:10079700F075E10490F1947409F090F0DF75F000C2
:1007A700120A57E5E930E71190F194740EF090F0D2
:1007B700E975F000120A578015E5E9FF30E60F905A
:1007C700F194740DF090F0F775F000120A57D0D03D
:1007D700D000D001D002D003D004D005D006D00776
:1007E700D083D082D0F0D0E0D02102008C90F0DB13
:1007F700E4F090F0DCF090DF2F742EF090DF30E41F
:10080700F090DF31F090DF0074D3F090DF01749146
:10081700F090DF0274FFF090DF03E4F090DF040450
:10082700F090DF05E4F090DF06F090DF07740AF040
:1008370090DF08E4F090DF097465F090DF0A7460D8
:10084700F090DF0BE4F090DF0C7476F090DF0D741E
:10085700A3F090DF0E7403F090DF0F7423F090DFA6
:10086700107411F090DF117445F090DF127407F0E7
:1008770090DF137430F090DF147414F090DF157468
:1008870016F090DF16746CF090DF177403F090DFAA
:10089700187440F090DF197491F090DF1A7456F0D5
:1008A70090DF1B7410F090DF1C74A9F090DF1D74AB
:1008B7000AF090DF1EE4F090DF1F7411F090DF2E36
:1008C70074FEF07591C0439A0175E10490F0DE74EF
:1008D70004F090000112013A75E10190F0DE740115
:1008E700F090000102013AAFF0AE83E58290F10685
:1008F700F0EEA3F0EFA3F090006412013A90F10636
:10090700E0FDA3E0FEA3E0FF8D828E838FF0120C43
:10091700FAF5D922AFF0AE83E58290F10BF0EEA3A2
:10092700F0EFA3F090F0DEE0FFBF0202800690F048
:10093700DE7402F090000112013A90F10EE5D9F051
:10094700E0FF90F109E0FDA3E0FE8F037C00C3EB1D
:100957009DEC9E40012290F10BE0FCA3E0FDA3E09B
:10096700FE8C828D838EF0EF120CBF7B01C3EB9F51
:100977005016EB2CF8E43DF98E02888289838AF0C1
:10098700E5D9120CBF0B80E575E10490F0DE740425
:10099700F090000102013A2089FDC28922E5829088
:1009A700F10FF0C28990F10FE0FFC374049FE433A5
:1009B700FE704AEF2F9009C073800880408009803D
:1009C70025803A75E100803590DF03E4F0758202F7
:1009D700C007C00612048C7582011204C2D006D06B
:1009E7000775E1028017758201C007C00612048CE3
:1009F7007582021204C2D006D00775E103EE70219A
:100A0700EF2F900A0D7380198017801580028011CF
:100A170090F1047405F0E4A3F090F09BF5F0020860
:020A2700EE22BD
:010D22004090
:030A290022222264
:02010F00C2012B
:100A2C0090F1B4E4F090F1B5F043868075C4027592
:100A3C00C2A375C50843F30C43FD0853FDFBD2AAB2
:100A4C0043A804C2E9C28B43864022AFF0AE83E5D3
:100A5C008290F195F0EEA3F0EFA3F0E58620E0FB99
:100A6C005386BFC2E97582031204C290F194E0FF71
:100A7C0090F154F090F1B5E4F090F195E0FCA3E026
:100A8C00FDA3E0FE90F1B5E0FBC39F502EC0078B99
:100A9C0002EA042454F9E434F1FAEB2CF8E43DFBBB
:100AAC008E0788828B838FF0120CFA89828A83F0EE
:100ABC0090F1B5E02401F0D00780C990F154E0F535
:100ACC00C143864022AFF0AE83E58290F199F0EEFF
:100ADC00A3F0EFA3F05386BFC2E97582031204C2E0
:100AEC0090F198E090F154F090F199E0FDA3E0FEC4
:100AFC00A3E0FF8D828E838FF0120CFA90F155F0EB
:100B0C008D828E838FF0120CFAF5C143864022AF92
:100B1C00F0AE83E58290F19EF0EEA3F0EFA3F043EC
:100B2C008640C28B90F1B4E4F090F19EE0FDA3E01E
:100B3C00FEA3E0FF90F19CE0FBA3E0FC90F1B4E09D
:100B4C00F97A00C3E99BEA9C5024308BFD90F1B4F8
:100B5C00E02DF8E43EF98F02888289838AF0E5C1A2
:100B6C00120CBFC28B90F1B4E02401F080CE5386FE
:0F0B7C00BF2290F11475F0002290F1B4E4F02242
:030D2300000000CD
:040000000200B63212
:01000B0032C2
:0100130032BA
:01001B0032B2
:0100230032AA
:01002B0032A2
:01003300329A
:01003B003292
:0300430002023086
:100048000000E2FBEAF2802C0000E0FBEAF08024EA
:10005800E6B50202EBF62200E2B50202EBF222005C
:10006800E0B50202EBF02230F6E0A88220F5D3EAF0
:10007800C6F582228B822230F6E6A88220F5D98046
:01008800CFA8
:0301110002008960
:03008900020BAFB8
:100B8B0053C680E5BE30E60512011480F643BE0461
:100B9B00D2AF7F00BF0B00500AC007120115D00760
:100BAB000F80F12290F1A17453F090F1A27474F0C4
:100BBB0090F1A37461F090F1A47472F090F1A574AC
:100BCB0074F090F1A6740AF090F1A7E4F0120B8B7D
:100BDB00120A2C1207F412031E90F09B743FF09034
:100BEB00F09C23F090F09D7401F07F03EF249BF5B4
:100BFB0082E434F0F58374D3F00FBF3F0040ED90E7
:100C0B00F0DA747FF090F1947406F090F1A175F026
:100C1B0000120A577582031209A430010E53D1FE3C
:100C2B00C20190F11475F0001205D33000E653D1D8
:0E0C3B00FDC20090F05B75F0001204F780D649
:0600E500E478FFF6D8FDEF
:100C4900AFF0AE83E58290F1ADF0EEA3F0EFA3F043
:100C590090F1ADE0F50BA3E0F50CA3E0F50DAA0BBF
:100C6900AB0CAC0D90F1A8E0F508A3E0F509A3E001
:100C7900F50A90F1ABE0F8A3E0F98806890718B8FE
:100C8900FF0119EE4F6025850882850983850AF0E1
:100C9900120CFAFFA38582088583098A828B838CCB
:100CA900F0EF120CBFA3AA82AB8380CE850B82859D
:060CB9000C83850DF02202
:1000C3007904E94400601B7A01900D2278B375939B
:1000D300F1E493F2A308B800020593D9F4DAF275B8
:0200E30093FF89
:10008C00C000A88118C0D0B6001B18B64800401597
:10009C00B66F005010C0E0E65407B406005004E6FA
:0A00AC0054F8F6D0E0D0D0D00032B6
:100CBF0020F71130F6138883A88220F509F6A88350
:100CCF007583002280FEF280F5F022AA83AB828B1F
:100CDF00F090F1B1E0A4F8A9F08AF0E0A429F98B23
:0B0CEF00F0A3E0A429F58388822222F4
:1000EB007800E84400600A79007593F0E4F309D8CE
:1000FB00FC78B3E84401600C790290F000E4F0A3C3
:04010B00D8FCD9FA49
:0D00B600758121120D16E58260030200899C
:100CFA0020F71430F6148883A88220F507E6A88323
:100D0A0075830022E280F7E49322E02275820022B2
:00000001FF
