:100114002243FE026390027EA87F61C007C00612DC
:100124000114120114120114D006D0071EBEFF01DF
:100134001FEE4F70E622AF83E58290F000F0EFA34C
:10014400F090F000E0FEA3E0FF90F1ADEEF0EFA33D
:10015400F0900FA0120C4AAE82AF838E048F057EFE
:10016400007F008C008D018E028F031CBCFF091DD3
:10017400BDFF051EBEFF011FE8494A4B6003008016
:10018400E222AF83E58290F002F0EFA3F075E40081
:1001940075E20075E40C90F002E0FEA3E0FF90F13C
:1001A400ADEEF0EFA3F09000BB120C4AAE82AF8329
:1001B40043E402ACE27D00C3EC9EED9F40F575E4A0
:1001C4000022AFF0AE83E58290F006F0EEA3F0EFEC
:1001D400A3F090F006E0FDA3E0FEA3E0FF90F0049E
:1001E400E0FBA3E0FC79007A00C005C006C00789E3
:1001F400008A07C3E89BEF9CD007D006D005502B9C
:10020400C003C004E929F8EA33FCE82DF8EC3EFC0D
:100214008F0388828C838BF0E4120C2FA3120C2F93
:1002240009B900010AD004D00380BE22C021C0E075
:10023400C0F0C082C083C007C006C005C004C003AC
:10024400C002C001C000C0D075D00090F031744429
:10025400F090F032744DF090F0337441F090F0343B
:100264007420F090F0357449F090F0367453F090A7
:10027400F03714F090F038740AF090F039E4F0900C
:10028400F03A7444F090F03B744DF090F03C7441BB
:10029400F090F03D7420F090F03E7449F090F03FFF
:1002A4007446F090F040740AF090F041E4F0E5D127
:1002B400FF30E00953D1FEC28BD201802EE5D1FF7D
:1002C40030E10953D1FDC289D200801FE5D1FF304E
:1002D400E21990F1937407F0E4A3F090F03AF5F08A
:1002E400120A2053D1FBC28975E104C2C0D0D0D018
:1002F40000D001D002D003D004D005D006D007D05E
:1003040083D082D0F0D0E0D02102008C7F00EF7542
:10031400F008A42409FD74F035F0FE7C0090F1A4EB
:10032400748AF0740CA3F07480A3F090F1A7C4F065
:10033400E4A3F08D828E838CF0C007120BB9D00732
:100344000FBF050040C875D4097E097FF08FD575AD
:10035400D2117E117FF08FD37EC17FDF8F0690F0A4
:1003640009EEF07FC190F00AEFF07E137FF18F0663
:1003740090F00BEEF07F1390F00CEFF090F00D7412
:100384003FF090F00E04F090F00F744EF090F010E7
:10039400741AF07ED97FDF8F0690F011EEF07FD9CA
:1003A40090F012EFF07E5A7FF08F0690F013EEF08B
:1003B4007F5A90F014EFF090F015743FF090F0161F
:1003C40004F090F0177453F090F018741AF07E9BB8
:1003D4007FF08F0690F019EEF07F9B90F01AEFF00B
:1003E4007ED97FDF8F0690F01BEEF07FD990F01C52
:1003F400EFF090F01D743FF090F01E04F090F01FA9
:100404007453F090F020744AF043D6019000011226
:10041400013A43B80122E58290F042F0E0F5F0059C
:10042400F07401800225E0D5F0FB4480F5D622E586
:100434008290F043F0E0F5F005F07401800225E0CD
:10044400D5F0FB42D622E58290F044F0E0F5F005C9
:0E045400F07401800225E0D5F0FBF452D622B0
:080C8A00000000000000000062
:10046200AFF0AE83E58290F045F0EEA3F0EFA3F09B
:1004720090F0487468F090F0497461F090F04A741A
:100482006EF090F04B7464F090F04C746CF090F05D
:100492004D7465F090F04E7472F090F04F740AF063
:1004A20090F050E4F090F045E0FDA3E0FEA3E0FF01
:1004B20074022DFAE43EFB8F048A828B838CF01245
:1004C2000C6AFC74012DF9E43EFA8F0389828A8357
:1004D2008BF0120C6AF9743F2DF8E43EFA8F038810
:1004E200828A838BF0120C6AF5088D008E028F03CC
:1004F20090F1937440F0E4A3F088828A838BF0C079
:1005020007C006C005C004C001120A20D001D004F1
:10051200D005D006D007B97E07747FB508028001E6
:1005220022BC0102800ABC10028038BC11628049E0
:1005320090F0517401F090F193F0E4A3F090F05137
:10054200F5F0C007C006C005120A20D005D006D0BB
:100552000790F1937440F0E4A3F08D828E838FF0C4
:10056200020A2090F0527410F090F193C4F0E4A3C8
:10057200F090F052F5F0020A2090F0537411F090CE
:10058200F1937401F0E4A3F090F053F5F0020A2025
:1005920022AFF0AE83E58290F054F0EEA3F0EFA329
:1005A200F090F054E0FDA3E0FEA3E0FF74022DFA08
:1005B200E43EFB8F048A828B838CF0120C6AFC74FB
:1005C200012DF9E43EFA8F0389828A838BF0120CA3
:1005D2006AF9743F2DFDE43EFE8D828E838FF01208
:1005E2000C6AFFB97E05BF7F02800122BC01028036
:1005F2000BBC10028027BC110280442290F0577479
:1006020001F090F193F0E4A3F090F057F5F0120AA4
:10061200207F02C007120115D007DFF72290F058A1
:100622007410F090F193C4F0E4A3F090F058F5F058
:10063200120A207F04C007120115D007DFF72290AB
:10064200F0597411F090F1937401F0E4A3F090F07A
:1006520059F5F0120A207F06C007120115D007DFF4
:10066200F77F0090F1037404F0E4A3F090F09AF5A0
:10067200F0C0071208D8D0070FBF0A0040E522C019
:1006820021C0E0C0F0C082C083C007C006C005C060
:1006920004C003C002C001C000C0D075D00090F0F9
:1006A200DE744FF090F0DF7476F090F0E07465F055
:1006B20090F0E17472F090F0E27466F090F0E374FE
:1006C2006CF090F0E4746FF090F0E57477F090F0D5
:1006D200E6740AF090F0E7E4F090F0E87454F090D9
:1006E200F0E97458F090F0EA7420F090F0EB745551
:1006F200F090F0EC746EF090F0ED7464F090F0EE27
:1007020004F090F0EF7472F090F0F07466F090F0F4
:10071200F1746CF090F0F2746FF090F0F37477F083
:1007220090F0F4740AF090F0F5E4F090F0F6745260
:10073200F090F0F77458F090F0F87420F090F0F91F
:10074200744FF090F0FA7476F090F0FB7465F090CC
:10075200F0FC7472F090F0FD7466F090F0FE746C30
:10076200F090F0FF746FF090F1007477F090F10167
:10077200740AF090F102E4F075E10490F1937409C7
:10078200F0E4A3F090F0DEF5F0120A20E5E930E79C
:100792001390F193740EF0E4A3F090F0E8F5F012E8
:1007A2000A208017E5E9FF30E61190F193740DF00D
:1007B200E4A3F090F0F6F5F0120A20D0D0D000D0E9
:1007C20001D002D003D004D005D006D007D083D008
:1007D20082D0F0D0E0D02102008C90F0DAE4F090E8
:1007E200F0DBF090DF2F742EF090DF30E4F090DF3A
:1007F20031F090DF0074D3F090DF017491F090DF5C
:100802000274FFF090DF037404F090DF047401F0CF
:1008120090DF05E4F090DF06F090DF07740AF090B5
:10082200DF08E4F090DF097465F090DF0A7460F08D
:1008320090DF0BE4F090DF0C7476F090DF0D74A380
:10084200F090DF0E7403F090DF0F7423F090DF104E
:100852007411F090DF117445F090DF127407F0907C
:10086200DF137430F090DF147414F090DF157416F7
:10087200F090DF16746CF090DF177403F090DF18BD
:100882007440F090DF197491F090DF1A7456F09072
:10089200DF1B7410F090DF1C74A9F090DF1D740A46
:1008A200F090DF1EE4F090DF1F7411F090DF2E74E1
:1008B200FEF07591C0439A0175E10490F0DD740475
:1008C200F090000112013A75E10190F0DD7401F03F
:1008D20090000102013AAFF0AE83E58290F105F09B
:1008E200EEA3F0EFA3F090F105E0FDA3E0FEA3E09C
:1008F200FF8D828E838FF0120C6AF5D9A28950FC8B
:10090200C28922AFF0AE83E58290F10AF0EEA3F045
:10091200EFA3F090F0DDE0FFBF0202800690F0DD71
:100922007402F090000112013A90F10DE5D9F0E065
:10093200FF90F108E0FDA3E0FE8F037C00C3EB9D76
:10094200EC9E40012290F10AE0FCA3E0FDA3E0FE50
:100952008C828D838EF0EF120C2F7B01C3EB9F50A4
:1009620016EB2CF8E43DF98E02888289838AF0E541
:10097200D9120C2F0B80E575E10490F0DD7404F0C0
:1009820090000102013A2089FDC28922E58290F19C
:100992000EF0E0FFC374049FE433FE7037EF2F9034
:1009A20009A5738008802D80098020802775E100C9
:1009B200802253D6FB43D60375E102900001C007A3
:1009C200C00612013AD006D007800953D6FD43D69D
:1009D2000575E103EE7021EF2F9009DF7380198016
:1009E2001780158002801190F1037405F0E4A3F0E2
:0909F20090F09AF5F00208D822F9
:010C92004021
:0309FB0022222293
:02010F00C2012B
:1009FE0090F1B0E4F043868075C40275C2A375C54C
:100A0E000843F30C43FD0853FDFBD2AAC2E943860B
:100A1E004022AFF0AE83E58290F195F0EEA3F0EFB9
:100A2E00A3F05386BFC2E990F1B1E4F090F195E0E6
:100A3E00FDA3E0FEA3E0FF90F193E0FBA3E0FC90AA
:100A4E00F1B1E0FAF87900C3E89BE99C5024EA2D55
:100A5E00F8E43EF98F02888289838AF0120C6AF5D7
:100A6E00C1E58630E1FB5386FD90F1B1E02401F043
:100A7E0080CD90F1B1E4F043864022AFF0AE83E535
:100A8E008290F19AF0EEA3F0EFA3F0438640C28B72
:100A9E0090F1B0E4F090F19AE0FDA3E0FEA3E0FF48
:100AAE0090F198E0FBA3E0FC90F1B0E0F97A00C37E
:100ABE00E99BEA9C5024308BFD90F1B0E02DF8E4D8
:100ACE003EF98F02888289838AF0E5C1120C2FC20B
:100ADE008B90F1B0E02401F080CE5386BF2290F1CE
:0B0AEE001375F0002290F1B0E4F0223C
:030C93000000005E
:040000000200B63212
:01000B0032C2
:0100130032BA
:01001B0032B2
:0100230032AA
:01002B0032A2
:01003300329A
:01003B003292
:0300430002023086
:100048000000E2FBEAF2802C0000E0FBEAF08024EA
:10005800E6B50202EBF62200E2B50202EBF222005C
:10006800E0B50202EBF02230F6E0A88220F5D3EAF0
:10007800C6F582228B822230F6E6A88220F5D98046
:01008800CFA8
:0301110002008960
:03008900020B1D4A
:100AF90053C680E5BE30E60512011480F643BE04F4
:100B0900D2AF7F00BF0B00500AC007120115D007F2
:100B19000F80F12290F19D7453F090F19E7474F05E
:100B290090F19F7461F090F1A07472F090F1A1744A
:100B390074F090F1A2740AF090F1A3E4F0120AF9AA
:100B49001209FE1207DC12031090F1B0E4F090F0E4
:100B59009A743FF090F09B23F090F09C7401F07F21
:100B690003EF249AF582E434F0F58374D3F00FBFD0
:100B79003F0040ED90F09DE4F090F0D9747FF09043
:100B8900F1937406F0E4A3F090F19DF5F0120A20B8
:100B990075E10490000112013A75E100900001121B
:100BA900013A90000112013A75820312098E80F808
:0600E500E478FFF6D8FDEF
:100BB900AFF0AE83E58290F1A9F0EEA3F0EFA3F0D8
:100BC90090F1A9E0F50CA3E0F50DA3E0F50EAA0C50
:100BD900AB0DAC0E90F1A4E0F509A3E0F50AA3E092
:100BE900F50B90F1A7E0F8A3E0F98806890718B892
:100BF900FF0119EE4F6025850982850A83850BF06F
:100C0900120C6AFFA385820985830A8A828B838CE9
:100C1900F0EF120C2FA3AA82AB8380CE850C8285BC
:060C29000D83850EF02290
:1000C3007904E94400601B7A01900C9278AF759330
:1000D300F1E493F2A308B800020593D9F4DAF275B8
:0200E30093FF89
:10008C00C000A88118C0D0B6001B18B64800401597
:10009C00B66F005010C0E0E65407B406005004E6FA
:0A00AC0054F8F6D0E0D0D0D00032B6
:100C2F0020F71130F6138883A88220F509F6A883E0
:100C3F007583002280FEF280F5F022AA83AB828BAF
:100C4F00F090F1ADE0A4F8A9F08AF0E0A429F98BB7
:0B0C5F00F0A3E0A429F5838882222284
:1000EB007800E84400600A79007593F0E4F309D8CE
:1000FB00FC78AFE84401600C790290F000E4F0A3C7
:04010B00D8FCD9FA49
:0D00B600758121120C86E58260030200892D
:100C6A0020F71430F6148883A88220F507E6A883B3
:100C7A0075830022E280F7E49322E0227582002243
:00000001FF
