:100114002243FE026390027EA87F61C007C00612DC
:100124000114120114120114D006D0071EBEFF01DF
:100134001FEE4F70E622AF83E58290F000F0EFA34C
:10014400F090F000E0FEA3E0FF90F1ACEEF0EFA33E
:10015400F0900FA0120C32AE82AF838E048F057E16
:10016400007F008C008D018E028F031CBCFF091DD3
:10017400BDFF051EBEFF011FE8494A4B70E522AFD3
:10018400F0AE83E58290F004F0EEA3F0EFA3F090DC
:10019400F004E0FDA3E0FEA3E0FF90F002E0FBA387
:1001A400E0FC79007A00C005C006C00789008A0710
:1001B400C3E89BEF9CD007D006D005502BC003C0EA
:1001C40004E929F8EA33FCE82DF8EC3EFC8F0388B7
:1001D400828C838BF0E4120C17A3120C1709B9005C
:1001E400010AD004D00380BE22C021C0E0C0F0C008
:1001F40082C083C007C006C005C004C003C002C0DB
:1002040001C000C0D075D00090F02F7444F090F07D
:1002140030744DF090F0317441F090F0327420F06D
:1002240090F0337449F090F0347453F090F0351436
:10023400F090F036740AF090F037E4F090F03874EF
:1002440044F090F039744DF090F03A7441F090F02D
:100254003B7420F090F03C7449F090F03D7446F00B
:1002640090F03E740AF090F03FE4F0E5D1FF30E006
:100274000953D1FEC28BD2018034E5D1FF30E109AC
:1002840053D1FDC289D2008025E5D1FF30E21F9011
:10029400F1927407F0E4A3F090F038F5F01209F746
:1002A40053D1FBC28975E10490F0DB7404F0C2C041
:1002B400D0D0D000D001D002D003D004D005D006D5
:1002C400D007D083D082D0F0D0E0D02102008C7F40
:1002D40000EF75F008A42407FD74F035F0FE7C00EF
:1002E40090F1A37472F0740CA3F07480A3F090F1F5
:1002F400A6C4F0E4A3F08D828E838CF0C007120BA9
:10030400A1D0070FBF050040C875D4077E077FF052
:100314008FD575D20F7E0F7FF08FD37EC17FDF8F95
:100324000690F007EEF07FC190F008EFF07E127FA8
:10033400F18F0690F009EEF07F1290F00AEFF09042
:10034400F00B743FF090F00C04F090F00D744EF04C
:1003540090F00E741AF07ED97FDF8F0690F00FEEC6
:10036400F07FD990F010EFF07E587FF08F0690F078
:1003740011EEF07F5890F012EFF090F013743FF00C
:1003840090F01404F090F0157453F090F016741A71
:10039400F07E587FF08F0690F017EEF07F5890F0C3
:1003A40018EFF07ED97FDF8F0690F019EEF07FD939
:1003B40090F01AEFF090F01B743FF090F01C04F0F2
:1003C40090F01D7453F090F01E744AF043D60190DF
:1003D400000112013A43B80122E58290F040F0E0B6
:1003E400F5F005F07401800225E0D5F0FB4480F5BA
:1003F400D622E58290F041F0E0F5F005F07401803A
:100404000225E0D5F0FB42D622E58290F042F0E0EE
:10041400F5F005F07401800225E0D5F0FBF452D626
:0104240022B5
:080C720000000000000000007A
:10042500AFF0AE83E58290F043F0EEA3F0EFA3F0DA
:1004350090F0467468F090F0477461F090F048745D
:100445006EF090F0497464F090F04A746CF090F09E
:100455004B7465F090F04C7472F090F04D740AF0A6
:1004650090F04EE4F090F043E0FDA3E0FEA3E0FF42
:1004750074022DFAE43EFB8F048A828B838CF01282
:100485000C52FC74012DF9E43EFA8F0389828A83AC
:100495008BF0120C52F9743F2DF8E43EFA8F038865
:1004A500828A838BF0120C52F5088D008E028F0321
:1004B50090F1927440F0E4A3F088828A838BF0C0B7
:1004C50007C006C005C004C0011209F7D001D00459
:1004D500D005D006D007B97E07747FB50802800124
:1004E50022BC0102800ABC10028038BC116280491E
:1004F50090F04F7401F090F192F0E4A3F090F04F7A
:10050500F5F0C007C006C0051209F7D005D006D022
:100515000790F1927440F0E4A3F08D828E838FF002
:100525000209F790F0507410F090F192C4F0E4A332
:10053500F090F050F5F00209F790F0517411F09039
:10054500F1927401F0E4A3F090F051F5F00209F78F
:1005550022AFF0AE83E58290F052F0EEA3F0EFA368
:10056500F090F052E0FDA3E0FEA3E0FF74022DFA47
:10057500E43EFB8F048A828B838CF0120C52FC7450
:10058500012DF9E43EFA8F0389828A838BF0120CE0
:1005950052F9743F2DFDE43EFE8D828E838FF0125D
:1005A5000C52FFB97E05BF7F02800122BC0102808B
:1005B5000BBC10028027BC110280442290F05574B8
:1005C50001F090F192F0E4A3F090F055F5F01209E6
:1005D500F77F02C007120115D007DFF72290F0560A
:1005E5007410F090F192C4F0E4A3F090F056F5F099
:1005F5001209F77F04C007120115D007DFF7229013
:10060500F0577411F090F1927401F0E4A3F090F0BA
:1006150057F5F01209F77F06C007120115D007DF5D
:10062500F77F0090F1017404F0E4A3F090F098F5E1
:10063500F0C0071208A9D0070FBF0A0040E522C085
:1006450021C0E0C0F0C082C083C007C006C005C09D
:1006550004C003C002C001C000C0D075D00090F036
:10066500DC744FF090F0DD7476F090F0DE7465F098
:1006750090F0DF7472F090F0E07466F090F0E17441
:100685006CF090F0E2746FF090F0E37477F090F016
:10069500E4740AF090F0E5E4F090F0E67454F0901C
:1006A500F0E77458F090F0E87420F090F0E9745594
:1006B500F090F0EA746EF090F0EB7464F090F0EC6A
:1006C50004F090F0ED7472F090F0EE7466F090F036
:1006D500EF746CF090F0F0746FF090F0F17477F0C7
:1006E50090F0F2740AF090F0F3E4F090F0F47452A4
:1006F500F090F0F57458F090F0F67420F090F0F763
:10070500744FF090F0F87476F090F0F97465F0900D
:10071500F0FA7472F090F0FB7466F090F0FC746C73
:10072500F090F0FD746FF090F0FE7477F090F0FFAC
:10073500740AF090F100E4F075E10490F0DB7404C4
:10074500F090F1927409F0E4A3F090F0DCF5F0126A
:1007550009F7E5E930E71390F192740EF0E4A3F0A0
:1007650090F0E6F5F01209F78017E5E9FF30E6119C
:1007750090F192740DF0E4A3F090F0F4F5F0120905
:10078500F7D0D0D000D001D002D003D004D005D00E
:1007950006D007D083D082D0F0D0E0D02102008CE3
:1007A50090F0D8E4F090F0D9F090DF2F742EF0900F
:1007B500DF30E4F090DF31F090DF0074D3F090DFAC
:1007C500017491F090DF0274FFF090DF037404F080
:1007D50090DF047401F090DF05E4F090DF06F090FF
:1007E500DF07740AF090DF08E4F090DF097465F024
:1007F50090DF0A7460F090DF0BE4F090DF0C747604
:10080500F090DF0D74A3F090DF0E7403F090DF0F0E
:100815007423F090DF107411F090DF117445F0909F
:10082500DF127407F090DF13743EF090DF14741438
:10083500F090DF157416F090DF16746CF090DF17EA
:100845007403F090DF187440F090DF197491F09004
:10085500DF1A7456F090DF1B7410F090DF1C74A93A
:10086500F090DF1D740AF090DF1EE4F090DF1F7436
:1008750011F090DF2E74FEF090DF397480F0D2A86D
:100885007591C0439A0175E10490F0DB7404F09012
:10089500000112013A75E10190F0DB7401F090005E
:1008A5000102013AAFF0AE83E58290F103F0EEA3C9
:1008B500F0EFA3F090F103E0FDA3E0FEA3E0FF8DD0
:1008C500828E838FF0120C52F5D990F101E0FBA3D3
:1008D500E0FC7A018A007900C3E89BE99C501EC0C0
:1008E50003C004EA2DF8E43EF98F04888289838CDD
:1008F500F0120C52F5D90AD004D00380D722AFF0FC
:10090500AE83E58290F108F0EEA3F0EFA3F090F04E
:10091500DBE0FFBF0202800690F0DB7402F090007E
:100925000112013A90F10BE5D9F0E0FF90F106E0F4
:10093500FDA3E0FE8F037C00C3EB9DEC9E400122EE
:1009450090F108E0FCA3E0FDA3E0FE8C828D838E90
:10095500F0EF120C177B01C3EB9F5016EB2CF8E45C
:100965003DF98E02888289838AF0E5D9120C170B2E
:1009750080E575E10490F0DB7404F090000102015C
:100985003A2089FDC2892290F0DBE0FFC374049F01
:10099500E433FE7013EF2F2F9009A1730209AD0206
:1009A50009AD0209AD0209ADEE7021EF2F9009B630
:1009B500738019801780158002801190F1017405EC
:0D09C500F0E4A3F090F098F5F00208A922EC
:010C7A004039
:0309D200222222BC
:02010F00C2012B
:1009D50090F1AFE4F043868075C40275C2A375C576
:1009E5000843F30C43FD0853FDFBD2AAC2E9438635
:1009F5004022AFF0AE83E58290F194F0EEA3F0EFE4
:100A0500A3F05386BFC2E990F1B0E4F090F194E011
:100A1500FDA3E0FEA3E0FF90F192E0FBA3E0FC90D4
:100A2500F1B0E0FAF87900C3E89BE99C5024EA2D7F
:100A3500F8E43EF98F02888289838AF0120C52F518
:100A4500C1E58630E1FB5386FD90F1B0E02401F06D
:100A550080CD90F1B0E4F043864022AFF0AE83E55F
:100A65008290F199F0EEA3F0EFA3F0438640C28B9C
:100A750090F1AFE4F090F199E0FDA3E0FEA3E0FF73
:100A850090F197E0FBA3E0FC90F1AFE0F97A00C3A9
:100A9500E99BEA9C5024308BFD90F1AFE02DF8E402
:100AA5003EF98F02888289838AF0E5C1120C17C24C
:100AB5008B90F1AFE02401F080CE5386BF2290F1F8
:0B0AC5001275F0002290F1AFE4F02267
:030C7B0000000076
:040000000200B63212
:01000B0032C2
:0100130032BA
:01001B0032B2
:0100230032AA
:01002B0032A2
:01003300329A
:01003B003292
:030043000201EDCA
:100048000000E2FBEAF2802C0000E0FBEAF08024EA
:10005800E6B50202EBF62200E2B50202EBF222005C
:10006800E0B50202EBF02230F6E0A88220F5D3EAF0
:10007800C6F582228B822230F6E6A88220F5D98046
:01008800CFA8
:0301110002008960
:03008900020AF474
:100AD00053C680E5BE30E60512011480F643BE041D
:100AE000D2AF7F00BF0B00500AC007120115D0071C
:100AF0000F80F12290F19C7453F090F19D7474F08A
:100B000090F19E7461F090F19F7472F090F1A07476
:100B100074F090F1A1740AF090F1A2E4F0120AD0FE
:100B20001209D51207A51202D390F1AFE4F090F0AC
:100B3000987404F090F099747EF090F09A7401F03B
:100B400090F09BE4F090F09C747FF090F19274062A
:100B5000F0E4A3F090F19CF5F01209F775E1049030
:100B6000F0DB7404F090000112013A75E10090F09E
:100B7000DBE4F090000112013A75E10390F0DB74C0
:100B800003F090000112013A90F10C7405F0E4A317
:100B9000F090F098F5F012098C90006412013A8000
:010BA000E76D
:0600E500E478FFF6D8FDEF
:100BA100AFF0AE83E58290F1A8F0EEA3F0EFA3F0F1
:100BB10090F1A8E0F50CA3E0F50DA3E0F50EAA0C69
:100BC100AB0DAC0E90F1A3E0F509A3E0F50AA3E0AB
:100BD100F50B90F1A6E0F8A3E0F98806890718B8AB
:100BE100FF0119EE4F6025850982850A83850BF087
:100BF100120C52FFA385820985830A8A828B838C1A
:100C0100F0EF120C17A3AA82AB8380CE850C8285EC
:060C11000D83850EF022A8
:1000C3007904E94400601B7A01900C7A78AE759349
:1000D300F1E493F2A308B800020593D9F4DAF275B8
:0200E30093FF89
:10008C00C000A88118C0D0B6001B18B64800401597
:10009C00B66F005010C0E0E65407B406005004E6FA
:0A00AC0054F8F6D0E0D0D0D00032B6
:100C170020F71130F6138883A88220F509F6A883F8
:100C27007583002280FEF280F5F022AA83AB828BC7
:100C3700F090F1ACE0A4F8A9F08AF0E0A429F98BD0
:0B0C4700F0A3E0A429F583888222229C
:1000EB007800E84400600A79007593F0E4F309D8CE
:1000FB00FC78AEE84401600C790290F000E4F0A3C8
:04010B00D8FCD9FA49
:0D00B600758121120C6EE582600302008945
:100C520020F71430F6148883A88220F507E6A883CB
:100C620075830022E280F7E49322E022758200225B
:00000001FF
